:020000040000fa
:080000000040040000000000b4
:020000040000fa
:040008002a41000089
:020000040000fa
:04000c002a41000085
:020000040000fa
:040010002a41000081
:020000040000fa
:040014002a4100007d
:020000040000fa
:040018002a41000079
:020000040000fa
:04001c002a41000075
:020000040000fa
:040020002a41000071
:020000040000fa
:040024002a4100006d
:020000040000fa
:040028002a41000069
:020000040000fa
:04002c002a41000065
:020000040000fa
:040030002a41000061
:020000040000fa
:040034002a4100005d
:020000040000fa
:040038002a41000059
:020000040000fa
:04003c002a41000055
:020000040000fa
:040040002a41000051
:020000040000fa
:040044002a4100004d
:020000040000fa
:040048002a41000049
:020000040000fa
:04004c002a41000045
:020000040000fa
:040050002a41000041
:020000040000fa
:040054000441000063
:020000040000fa
:040058002a41000039
:020000040000fa
:04005c002a41000035
:020000040000fa
:040060002a41000031
:020000040000fa
:040064002a4100002d
:020000040000fa
:040068002a41000029
:020000040000fa
:04006c002a41000025
:020000040000fa
:040070002a41000021
:020000040000fa
:040074002a4100001d
:020000040000fa
:040078002a41000019
:020000040000fa
:04007c002a41000015
:020000040000fa
:040080002a41000011
:020000040000fa
:040084002a4100000d
:020000040000fa
:040088002a41000009
:020000040000fa
:04008c002a41000005
:020000040000fa
:040090002a41000001
:020000040000fa
:040094002a410000fd
:020000040000fa
:040098002a410000f9
:020000040000fa
:04009c002a410000f5
:020000040000fa
:0400a0002a410000f1
:020000040000fa
:0400a4002a410000ed
:020000040000fa
:0400a8002a410000e9
:020000040000fa
:0400ac002a410000e5
:020000040000fa
:0400b0002a410000e1
:020000040000fa
:0400b4002a410000dd
:020000040000fa
:0400b8002a410000d9
:020000040000fa
:0400bc002a410000d5
:020000040000fa
:0400c0002a410000d1
:020000040000fa
:0400c4002a410000cd
:020000040000fa
:0400c8002a410000c9
:020000040000fa
:0400cc002a410000c5
:020000040000fa
:0400d0002a410000c1
:020000040000fa
:0400d4002a410000bd
:020000040000fa
:0400d8002a410000b9
:020000040000fa
:0400dc002a410000b5
:020000040000fa
:0400e0002a410000b1
:020000040000fa
:0400e4002a410000ad
:020000040000fa
:0400e8002a410000a9
:020000040000fa
:0400ec002a410000a5
:020000040000fa
:0400f0002a410000a1
:020000040000fa
:0400f4002a4100009d
:020000040000fa
:0400f8002a41000099
:020000040000fa
:0400fc002a41000095
:020000040000fa
:040100002a41000090
:020000040000fa
:040104002a4100008c
:020000040000fa
:040108002a41000088
:020000040000fa
:04010c002a41000084
:020000040000fa
:040110002a41000080
:020000040000fa
:040114002a4100007c
:020000040000fa
:040118002a41000078
:020000040000fa
:04011c002a41000074
:020000040000fa
:040120002a41000070
:020000040000fa
:040124002a4100006c
:020000040000fa
:040128002a41000068
:020000040000fa
:04012c002a41000064
:020000040000fa
:040130002a41000060
:020000040000fa
:040134002a4100005c
:020000040000fa
:040138002a41000058
:020000040000fa
:04013c002a41000054
:020000040000fa
:040140002a41000050
:020000040000fa
:040144002a4100004c
:020000040000fa
:040148002a41000048
:020000040000fa
:04014c002a41000044
:020000040000fa
:040150002a41000040
:020000040000fa
:040154002a4100003c
:020000040000fa
:040158002a41000038
:020000040000fa
:04015c002a41000034
:020000040000fa
:040160002a41000030
:020000040000fa
:040164002a4100002c
:020000040000fa
:040168002a41000028
:020000040000fa
:04016c002a41000024
:020000040000fa
:040170002a41000020
:020000040000fa
:040174002a4100001c
:020000040000fa
:040178002a41000018
:020000040000fa
:04017c002a41000014
:020000040000fa
:040180002a41000010
:020000040000fa
:040184002a4100000c
:020000040000fa
:040188002a41000008
:020000040000fa
:04018c002a41000004
:020000040000fa
:040190002a41000000
:020000040000fa
:040194002a410000fc
:020000040000fa
:040198002a410000f8
:020000040000fa
:04019c002a410000f4
:020000040000fa
:0401a0002a410000f0
:020000040000fa
:0401a4002a410000ec
:020000040000fa
:0401a8002a410000e8
:020000040000fa
:0401ac002a410000e4
:020000040000fa
:0401b0002a410000e0
:020000040000fa
:0401b4002a410000dc
:020000040000fa
:0401b8002a410000d8
:020000040000fa
:0401bc002a410000d4
:020000040000fa
:0401c0002a410000d0
:020000040000fa
:0401c4002a410000cc
:020000040000fa
:0401c8002a410000c8
:020000040000fa
:0401cc002a410000c4
:020000040000fa
:0401d0002a410000c0
:020000040000fa
:0401d4002a410000bc
:020000040000fa
:0401d8002a410000b8
:020000040000fa
:0401dc002a410000b4
:020000040000fa
:0401e0002a410000b0
:020000040000fa
:0401e4002a410000ac
:020000040000fa
:0401e8002a410000a8
:020000040000fa
:0401ec002a410000a4
:020000040000fa
:0401f0002a410000a0
:020000040000fa
:0401f4002a4100009c
:020000040000fa
:0401f8002a41000098
:020000040000fa
:0401fc002a41000094
:020000040000fa
:108000008f2521000eff27000e01880000000000d0
:10801000000020000000e00002003200000120000b
:1080200020028800140007008c0007000000e00018
:1080300003003a00a0532c00a100200002003700ea
:108040000000200001002000810f700001003200bc
:1080500014000700000020000000e00002003200d1
:1080600000000200000000006ac502000a000000d3
:108070000040da000000fe004440a900a0002000fb
:108080000000e00003003200502120009001880031
:108090004440a800000006008a1f78008b1f78006b
:1080a00000000600a1028800800478000000eb00b8
:1080b0001f003700e284440054a0b4009905ba00c0
:1080c000e284440054a0b4009906ba00e28444005b
:1080d00054a0b4000006eb00476fde00fd07b200bd
:1080e000ae018800636ce10003003a00eaff07007c
:1080f0000000eb000e003700606ce10008003a0061
:10810000004deb000a05e800020039003420ec00c5
:108110000af0a0008b05e900f9ff3e0004003700db
:108120006168e100010032000086eb000b000700ef
:1081300019c7ba001905ba000e04e00003003a009e
:108140000a00e000dbff3a0000000600fe07b20074
:10815000ae0288008a047800f5ff37000cd0a30037
:10816000e20f4d001c00390089027800354dba003d
:108170000a05e800020039003420ec000af0a000f3
:108180008b05e9000f003200254dba000a05e80012
:10819000020039003420ec000af0a0008b05e90051
:1081a000080032000c00e0000600320015cdba00d5
:1081b0000a05e800020039003420ec000af0a000b3
:1081c0008b05e9008984e80054a0b4000b00e000ae
:1081d000e2ff3a00000006009902ba00055d78004f
:1081e0008b05e900f7ff3200c82ade00055d780044
:1081f0008b05e900f3ff32000c00e000f1ff3200d4
:1082000019ddba00eeff3700801f78000200fa0087
:108210000040eb00004f7800f01c8000004f780019
:108220008960a900d01c8000620060000000e000ae
:10823000010032009a23a900d01c80006100600078
:108240000000e000f4ff3a000080fa004f007800e0
:10825000004006000040da000000fe0000000500bb
:108260008001780002003700b15978000201e9006e
:108270000200e000fcff3a000000060080017800e8
:1082800002003700815978000201e9000200e00095
:08829000fcff3a0000000600ab
:020000040000fa
:020000040015e5
:047e0000ffff000080
:020000040000fa
:020000040015e5
:107e040031320000333400003536000037380000ca
:047e14003900000031
:020000040000fa
:020000040015e5
:047e2000ff1f000040
:020000040000fa
:020000040015e5
:047e3000f3ffff005d
:020000040000fa
:020000040015e5
:047e3800bdffff008b
:020000040000fa
:020000040015e5
:047e40009fffff00a1
:020000040000fa
:020000040015e5
:047e4800ffffff0039
:020000040000fa
:020000040015e5
:047e5000dfffff0051
:020000040000fa
:020000040015e5
:047e5800ffffff0029
:020000040000fa
:020000040015e5
:107e5c000600fa0010079800210798000000eb00bc
:107e6c00000f78000a0037002e0090000000e90097
:107e7c009e00900000804000104078000080fb00c5
:107e8c001e0f40002e0090000000e9002007980013
:107e9c002e0090000000e000f3ff3a001e00780076
:107eac000080fa00000006001200fa00500798004b
:107ebc006107980072079800030f98000080eb0090
:107ecc008080eb0010079800210798006000b80034
:107edc0030079800410798005e019000ee01900079
:107eec001207980023079800310037003e009000dd
:107efc00fe00900000804000104078000080fb00e5
:107f0c008000eb00c800dd00000020001e01900086
:107f1c00ae01900000006900818069001007980094
:107f2c00210798003e009000ce00900061004000b8
:107f3c00e080480030079800410798000000eb00f3
:107f4c00000f7800170037001e009000ae00900064
:107f5c00e00f5000e08f58000b003d001e00900019
:107f6c00ae009000000140008181480070db2100d0
:107f7c00114c2000000069008180690010079800f6
:107f8c0021079800060037001e009000ae009000fc
:107f9c0000004000818048001007980021079800dd
:107fac001e0fe8001e007800e70f5000e6ff3600b9
:107fbc000e08900000f0a7000000ea000000ea00a4
:107fcc004f00de00004078008e0890008100e90030
:107fdc00010f98000004e000c4ff3a001e0090005e
:107fec00ae0090000080fa00000006000800fa00c5
:107ffc0020079800614798000000eb00000f780004
:10800c000000eb0010079800e0182100a1c3b3009a
:10801c0001487800f018210061c1b30001487800d4
:10802c000019210001cfb30001487800101921007c
:10803c00ee409000014878000000eb00000f780043
:10804c00090037009e007800648040009e00e80024
:10805c002e0190008100410011417800e1182100af
:10806c00827078001e0fe8006e4090000080fb00cc
:10807c009e0f5000f3ff3e006e4090000080fb000e
:10808c006300400080007800f018210070ff0700aa
:10809c00100798006e4090000080fb0064004000c8
:1080ac009e00900001417800e11821008270780058
:1080bc006e4090000080fb00650040009e00900028
:1080cc00c808de0001417800e118210082707800b8
:1080dc006e4090000080fb0066004000e11821001b
:1080ec00d2c0b300827078006e4090000080fb001c
:1080fc0067004000e1182100a2c0b3008270780034
:10810c006e4090006840400080407800e0182100ec
:10811c0008c502000a0000000080fa0000000600fa
:10812c000000fa004022210001c1b3000148780090
:10813c005022210051cfb300014878006022210069
:10814c0011c0b300014878007022210021c0b30097
:10815c000148780090408000a14080008040780069
:10816c00802221000148780090408000a1408000ce
:10817c004809dd004800de0000007100c808de0080
:10818c0080407800902221000148780090408000c7
:10819c00a14080004008de0080407800a022210031
:1081ac0001487800d040800080407800b022210047
:1081bc0001487800d04080004800de008040780004
:1081cc00c022210001487800e0408000f14080008e
:1081dc0080407800d022210001487800e0408000e7
:1081ec00f14080004809dd004800de00000071000d
:1081fc00c808de0080407800e022210001487800a9
:10820c00e0408000f14080004008de0080407800b3
:10821c00f022210001487800e0408000f14080000d
:10822c004808de00804078000023210001487800d7
:10823c001023210080c0eb0001487800202321008e
:10824c0080c0eb00014878003023210080c0eb0097
:10825c00014878004023210080c0eb0001487800e1
:10826c005023210080c0eb000148780011c1b300fd
:10827c00402221005dff07000080fa00000006008c
:10828c000000fa00201f210021c0b3000148780033
:10829c00301f210061cfb30001487800401f21003e
:1082ac008040eb000148780021c0b300201f210062
:1082bc004eff07000080fa00000006000000fa00e4
:1082cc00001c210021c0b30001487800101c2100c3
:1082dc0071cfb30001487800201c21008040eb00d6
:1082ec000148780021c0b300001c21003fff0700ab
:1082fc000080fa00000006000c00fa000000eb0001
:10830c00000f78000040eb00204798000040eb0085
:10831c00304798000040eb00404798000040eb00cd
:10832c00504798006000b80030079800410798004b
:10833c000040eb00204f9800200621009040780070
:10834c0021479800300621001041780032479800f0
:10835c004006210090407800214f980050062100e3
:10836c001041780052479800600621009040780038
:10837c0041479800ae409000a0c3b30080cf50009e
:10838c0011003a003e409000f64f50000e003a00ab
:10839c005e4090000080fb0066004000210621003a
:1083ac0061407800ed4f500007003a005e409000ad
:1083bc000080fb006700400021062100614078002e
:1083cc00ea4f5000020032000040eb00140137006d
:1083dc004e4090000080fb00410f2000810f5000a8
:1083ec000d013200410f2000810f500001003c00b4
:1083fc000a013700610f2000810f50000900320084
:10840c00610f2000810f500004003500710f200017
:10841c00810f5000890032000001370040ff070037
:10842c00fe00370090062100104078008080fb0091
:10843c00a0062100104078000080fb004800dd0001
:10844c0080804000b0062100104078000080fb00c6
:10845c004000dd0000804000cf80de00204088001e
:10846c0031408800c0062100104078008080fb005d
:10847c00d0062100104078000080fb004800dd0091
:10848c000080400040408800e00621001040780049
:10849c008080fb00f0062100104078000080fb007b
:1084ac004800dd008080400000072100104078006b
:1084bc000080fb004000dd008080400010072100a0
:1084cc00104078000080fb004800dd000080400078
:1084dc00cf80de0040418800514188000028ef0029
:1084ec000228ef001228ef001428ef002240800031
:1084fc0033408000f07f2000010020000202780051
:10850c00030178008001780001007800030262000a
:10851c00000061008000eb00c000dd0000002000c6
:10852c000001be006120b800000171008181710062
:10853c00e00f5100e08f59000b003a0010c0b3005f
:10854c000ee8b70020408000314080004509dd0076
:10855c004b00de0000007100cb08de00000078004c
:10856c00504088000a0037002040800031408000d5
:10857c004509dd004b00de0000007100cb08de0079
:10858c00000078000000e800504088000e68ef0002
:10859c002240800033408000f007200001002000c2
:1085ac000202780003017800800178000100780055
:1085bc0003026200000061008000eb00c000dd00df
:1085cc00000020000001be006120b8000001710015
:1085dc0081817100e00f5100e08f59000b003a00cf
:1085ec0010c0b3000fe8b70020408000314080007d
:1085fc004909dd004700de0000007100c708de00fd
:10860c0000007800404088000a00370020408000bd
:10861c00314080004909dd004700de000000710098
:10862c00c708de00000078000000e8004040880029
:10863c000f68ef0012ff070078003700500621008a
:10864c001040780011e8b700700621001040780047
:10865c008080fb0080062100104078000080fb0029
:10866c004800dd0000804000b0408800d040800011
:10867c000000e800d0408800b04080008080e80016
:10868c00d0408000808f500014003a0011c8bf0009
:10869c000080fb00630050006101b9009040800035
:1086ac00a140800002004000838048009040880078
:1086bc00a140880011c8bf000080fb00630150007e
:1086cc00e0408000f1408000820178009206210099
:1086dc00f5fd0700e0408800f140880011c8bf009c
:1086ec000080fb006300500000017800910621001f
:1086fc00b04080006f006000c701dd0020862000c4
:10870c000080410030410200000000000ec8bf0094
:10871c00e14f50001b003a0010c8bf008080fb00e6
:10872c0050408000808f500039003100b0408000f4
:10873c000000e800670060000000e00034003a0030
:10874c0010c8bf000040e80010e8b700028020000d
:10875c008000eb00208620003e410200000000005b
:10876c0002408000134080000080200001002000a7
:10877c0002004000838048000040880011408800bf
:10878c002300370010c8bf008080fb0050408000e1
:10879c00808f50001e003100b04080000000e800c7
:1087ac006f0060000000e00011003a0010c8bf002c
:1087bc000040e80010e8b70002802000f10f200014
:1087cc00208620003e410200000000000240800094
:1087dc0013408000008020000100200002004000b7
:1087ec008380480000408800114088000800370052
:1087fc00404080008000e900b0408000808f500035
:10880c0003003a0010c8bf000040e80010e8b700b1
:10881c00aafe070001003700000000000040eb003a
:10882c000080fa00000006000400fa000000eb00d3
:10883c00000f78000000eb0010079800d01c80009f
:10884c0061006000004078000004e000120032007b
:10885c0000418000f11c80000141780021062100bc
:10886c0082707800004180000000e8000041880020
:10887c0001418000700c2000808f500001003600f8
:10888c002028ef0010c0b30022e8b7002428ef0026
:10889c002628ef000600370020418000314180007f
:1088ac0061004000e0804800204188003141880090
:1088bc0022c8bf00e14f500028003a00224180003e
:1088cc0033418000f0e1240001002000800f5100b2
:1088dc00818f5900210036002268ef002428ef0018
:1088ec002628ef0000418000e70f500015003600ed
:1088fc0000418000650050008000780030062100a7
:10890c0053fd0700000f7800004180006300500009
:10891c0021062100614078000080fb0010079800c0
:10892c001e009000c800dd00004180006400500073
:10893c0022062100624078000080fb00008040008d
:10894c00100798001e0090009e007800808f500049
:10895c0001003a0068fe07002028ef000080fa00b2
:10896c00000006000200fa00004f78000000000032
:10897c00d11c800000202000008060000000e0007e
:10898c00fbff3a001e80fb00e01c88000080fa0010
:10899c00000006000000fa00513f800000f82f0094
:1089ac00008060003000b300503f8800a13d800083
:1089bc0000fc2f00008060007001b300a03d880017
:1089cc00a266a8009e46a8009e66a900a2c6a900a1
:1089dc009ec6a90080802800c01c88000040220090
:1089ec00d01c880020022000001d88008980a9006e
:1089fc008960a9009980a9009960a9000080fa00fb
:108a0c00000006000600fa00100798004147980085
:108a1c000040eb00004f7800060037001e0090006d
:108a2c0010407800cfff07001e0090000000e80007
:108a3c00100798004e4090000080fb000000ea00f8
:108a4c004f00de0000407800ce4090008140e900ed
:108a5c00414798000004e000f0ff3a0010c0b3005a
:088a6c000080fa000000060082
:020000040000fa
:020000040015e5
:108a74005612000002000000820000005aa5000007
:108a840030080000260a00008000000000080000f2
:108a940028000000800000002808000008000000f2
:108aa40082000000ffffff00ffffff00ffff000048
:048ab40000000000be
:020000040000fa
:020000040015e5
:108ab8000000fa000221ef00800880000040a100b9
:108ac800800888000080fa00000006000000fa0014
:108ad800f7ff0700d0c402000a0000009100200040
:108ae80020f02b0008c502000a000000ffff370035
:00000001FF
